:020000040800F2
:1080000078040020DD8100086F8E0008C38D000811
:108010006D8E0008E98200088990000800000000C9
:10802000000000000000000000000000738E000847
:10803000EB82000800000000718E0008758E0008B9
:10804000F7810008F7810008F7810008F781000830
:10805000F7810008F7810008F7810008F781000820
:10806000F7810008F7810008F7810008F781000810
:10807000F7810008F7810008F7810008F781000800
:10808000F7810008F7810008F7810008F7810008F0
:10809000F7810008F7810008F7810008F7810008E0
:1080A000F7810008F7810008F7810008F7810008D0
:1080B000F7810008F7810008F7810008F7810008C0
:1080C000F7810008F7810008F7810008F7810008B0
:1080D000F7810008F7810008F7810008F7810008A0
:1080E000ED820008F7810008F7810008F781000899
:1080F000F7810008F7810008F7810008F781000880
:10810000F7810008F7810008F7810008F78100086F
:10811000F7810008F7810008F7810008F78100085F
:10812000F7810008F7810008F7810008F78100084F
:10813000F78100080000000000000000F78100083F
:10814000F7810008F7810008F7810008F78100082F
:10815000F7810008F7810008F7810008F78100081F
:10816000F7810008F7810008F7810008F78100080F
:10817000F7810008F7810008F7810008000000007F
:1081800000000000F781000800000000000000006F
:10819000F78100080000000000000000F7810008DF
:1081A000000000000000000000000000F78100084F
:1081B000F7810008F7810008F7810008F7810008BF
:1081C000F7810008DFF810D000F07CF80048004785
:1081D000C9900008AFF3008078040020064880476B
:1081E00006480047FEE7FEE7FEE7FEE7FEE7FEE79C
:1081F000FEE7FEE7FEE7FEE7FD8E0008C58100080A
:108200002DE9F05F0546002092469B4688460646CB
:10821000814640241BE0284641464746224600F05E
:1082200041F853465A46C01A914110D31146184698
:10823000224600F028F82D1A67EB01084F46224627
:108240000120002100F01FF817EB00094E41201E0D
:10825000A4F10104DFDC484631462A464346BDE826
:10826000F09FD2B201E000F8012B491EFBD270470B
:108270000022F6E710B513460A4604461946FFF7F2
:10828000F0FF204610BD202A04DB203A00FA02F15C
:10829000002070479140C2F1200320FA03F31943F4
:1082A00090407047202A04DB203A21FA02F0002196
:1082B000704721FA02F3D040C2F1200291400843F6
:1082C00019467047064C074D06E0E06840F0010390
:1082D00094E8070098471034AC42F6D3FFF776FFD6
:1082E0005491000874910008FEE7704710B50B4CDC
:1082F000207870B100222021094800F017F9207879
:1083000048B100202070BDE810404FF4005000F04C
:108310000BB80122EFE70120F4E700001E00002067
:108320000000024070470000044910B50A6802428C
:1083300002D00860FFF7F6FF10BD0000143C0140BA
:108340002DE9F84FDFF8ACA1002201240AF1040B5B
:1083500003254FF00F090BF1040E00BF0B6804FA60
:1083600002F63340B34272D10F7907F00307012FB1
:1083700001D0022F16D187684FEA420805FA08FC9F
:1083800027EA0C07D1F80CC00CFA08FC4CEA070CE1
:10839000C0F808C04768B7430E79C6F30016964088
:1083A0003E4346600E79F643B6070AD0C6684FEAE8
:1083B000420C05FA0CF7BE438F6807FA0CF73743F7
:1083C000C7600E7906F00306022E10D1D60800EB26
:1083D0008608D8F8206057074FEAD76C09FA0CF7DF
:1083E000BE430F6907FA0CF73743C8F820700668D8
:1083F0004FEA420C05FA0CF7BE430F7907F003076A
:1084000007FA0CF7374307604E68F6006BD53A4E13
:10841000376847F480473760366822F0030706F470
:1084200080460096354E07EB060CDCF80868970787
:108430004FEA177809FA08F7BE43314FB84201D125
:1084400000271FE02F4FB84202D101271AE04AE06F
:108450002D4FB84201D1022714E02C4FB84201D170
:1084600003270FE02A4FB84201D104270AE0294F21
:10847000B84201D1052705E0274FB84201D10627B0
:1084800000E0072707FA08F73743CCF80878DAF84E
:1084900000605746D1F804C09E435FEACC3C00D54B
:1084A0001E433E60DBF800605F46D1F804C09E4387
:1084B0005FEA8C3C00D51E433E60DEF800607746E4
:1084C000D1F804C09E435FEACC2C00D51E433E6029
:1084D000084F0C373E68D1F804C09E435FEA8C2CED
:1084E00000D51E433E60521C102AFFF437AFBDE892
:1084F000F88F0000003C0140443802400030014049
:10850000000002400004024000080240000C02404B
:10851000001002400014024000180240426921EAA3
:1085200002030A4043EA0241816170470AB1816156
:1085300070470904FBE700000148806870470000AD
:108540002000002002488168027811448160704751
:10855000200000200B4810B5016841F40071016053
:10856000016841F480610160016841F4807101603B
:10857000032000F071F8002000F006F800F024F865
:10858000002010BD003C024070B50D4D04464FF474
:108590007A712878B1FBF0F00A490968B1FBF0F074
:1085A00000F03CFB48B9102C07D200222146501E97
:1085B00000F032F800206C6070BD012070BD00003A
:1085C000200000202C0000200B4882B0016841F4FC
:1085D00080410160006800F4804000900648001F60
:1085E000016841F080510160006800F08050009007
:1085F000072002B000F030B844380240002809DB00
:1086000000F01F02012191404009800000F1E020AC
:10861000C0F8001170470000F0B40E4B1B680C4608
:10862000C3F30223C3F10705042D00D90425191D46
:10863000072901D2002300E0DB1E012606FA05F11E
:10864000491E214099409E40761E16403143F0BCA1
:1086500000F01BBD0CED00E0064900F007020868C1
:108660004FF6FF03184040EA0220034A1043086017
:10867000704700000CED00E00000FA052DE9F0471E
:108680000E46050065D0DFF81481D8F80000F7B277
:1086900000F00F00B04207D288F80070D8F8000050
:1086A00000F00F00B04254D128683D4C810712D52C
:1086B000400703D5206840F4E05020602878000788
:1086C00003D5206840F4604020602068A96820F04D
:1086D000F000084320602878C0072DD03049686832
:1086E0000839012812D0022813D0032811D00968B4
:1086F000890700292DDA216821F003010143216057
:10870000FFF71AFF814641F2883A0EE009688903B3
:10871000EFE709688901ECE7FFF70EFFA0EB09011D
:10872000514502D90320BDE8F0872068696800F050
:108730000C00B0EB810FEFD1D8F80010404601F0EB
:108740000F01B14207D90770006800F00F00B04276
:1087500001D00120E7E72878400705D52068E968BF
:1087600020F4E050084320602878000706D52068F0
:10877000296920F4604040EAC100206000F038F828
:108780002168084AC1F30311515CC84006490860DA
:1087900006480068FFF7F8FE0020C4E7003C0240EE
:1087A000083802403C9100082C00002024000020E2
:1087B0000448054900680968044AC1F38221515CF4
:1087C000C84070472C000020083802404C91000837
:1087D0000448054900680968044AC1F34231515C04
:1087E000C84070472C000020083802404C91000817
:1087F000224810B5006810F00C02214815D0411035
:10880000042A11D01D4C241F082A0FD00C2A0CD189
:108810002268236802F03F025B0221D52068C0F382
:108820008810A0FB010120E0084610BD22682368E3
:1088300002F03F025B0205D52068C0F38810A0FB60
:10884000010104E02168C1F38811A1FB00010023AC
:10885000FFF7D6FC2168C1F30141491C49000AE039
:108860002168C1F38811A1FB00010023FFF7C8FCB8
:108870002168C1F30271B0FBF1F010BD083802406D
:108880000024F4002DE9F84F04007DD0DFF878B320
:108890002078ABF10407C007A7F1040550D0DBF83E
:1088A00000105846C1F3810101290FD00168C1F3BE
:1088B0008101022902D13968490207D40068C0F356
:1088C0008100032809D13868400206D52868800352
:1088D00036D560680028D8D032E06068B0F5803FB7
:1088E00010D0B0F5A02F286810D020F48030286078
:1088F000286820F4802028606068A0B1FFF71CFE83
:1089000006460CE0286840F48030F4E740F480200C
:108910002860F7E7FFF710FE801B642876D82868E8
:108920008003F7D50CE0FFF707FE064605E000BF21
:10893000FFF702FE801B6428F0D828688003F7D474
:108940002078DFF8C89280074FF0000A44D5DBF8A2
:108950000010584611F00C0F0FD00168C1F38101CF
:10896000022902D13968490207D50068C0F38100A5
:1089700003280AD13868400207D42868800715D533
:10898000E068012800D111E03AE1E068B0B10120CF
:10899000C9F80000FFF7D0FD064604E0FFF7CCFD64
:1089A000801B0228BAD828688007F7D52868216973
:1089B00020F0F80040EAC10028600DE0C9F800A0EE
:1089C000FFF7BAFD064604E0FFF7B6FD801B02285C
:1089D0001CD828688007F7D42078000727D5DFF84F
:1089E00028828B48616908F16C0881B1012101601E
:1089F000FFF7A2FD064604E0FFF79EFD801B02285C
:108A000004D8D8F800008007F6D510E089E0C0F857
:108A100000A0FFF791FD064605E000BFFFF78CFDC3
:108A2000801B02287DD8D8F800008007F6D4207873
:108A3000400769D574484FF0000838300068C0001E
:108A40000BD471483830016841F0805101600068F2
:108A50004FF0010800F0805000906E4E3068C00565
:108A600011D4306840F480703060FFF765FD0090ED
:108A700006E000BFFFF760FD0099401A022850D8B9
:108A80003068C005F6D5604EA068683601280FD062
:108A90000528306810D020F001003060306820F0E8
:108AA00004003060A068B8B1FFF746FD00900FE009
:108AB000306840F00100F4E740F004003060F7E770
:108AC000FFF73AFD0099411A41F28830814264D89B
:108AD00030688007F4D50EE0FFF72EFD009007E028
:108AE000FFF72AFD0099411A41F28830814254D89B
:108AF00030688007F4D4B8F1000F05D04248383010
:108B0000016821F080510160A069A8B3DBF8001072
:108B1000C1F38101022947D00228C9F860A005D01D
:108B200000E03AE0FFF708FD044639E0FFF704FDF6
:108B3000064604E0FFF700FD801B02282DD82868B8
:108B40008001F7D4F4E907010843E168324A490893
:108B500002EB0141A26841EA82110843217C40EA0C
:108B60000160217D40EA017038600120C9F8600091
:108B7000FFF7E2FC044606E044E000BFFFF7DCFC40
:108B8000001B022809D828688001F7D53AE000BF09
:108B9000FFF7D2FC001B022802D90320BDE8F88FA2
:108BA00028688001F4D42DE00128F7D03868E26904
:108BB00000F48001914223D1226A00F03F019142EA
:108BC0001ED147F6C071626A0140B1EB821F17D116
:108BD000A26A4FF0FF3300F4403103EB5202B1EBD5
:108BE000024F0DD194F82C2000F07061B1EB026FB0
:108BF00006D194F8301000F0E040B0EB017F01D0D6
:108C00000120CBE70020C9E70838024000004742B6
:108C1000800E4742007000400000FFFF10B5401E6C
:108C2000B0F1807F01D3012010BD4FF0E0246061DE
:108C30000F21601700F029FA0020A06107202061B1
:108C4000002010BD70B5040004D094F83D0000254C
:108C500010B106E0012070BD84F83C50204600F0C1
:108C600023F8242084F83D002068C16821F40051D5
:108C7000C160204600F050F92068016921F490415C
:108C800001612068416921F02A0141612068C168C1
:108C900041F40051C1602564202084F83D0084F82F
:108CA0003E00002070BD000010B586B004461421BF
:108CB0006846FFF7DDFA13492068884220D1124840
:108CC0000021026842F400320260006800F40030C3
:108CD00005900D481038026842F0010202600068F9
:108CE00000F0010005900C2000900220CDE9010168
:108CF000032003900720049069460448FFF720FBF7
:108D000006B010BD00440040403802400000024060
:108D10002DE9F843044690F83D001F4616460D46DF
:108D200020284CD1C5B1BEB194F83C00012846D0F2
:108D3000012084F83C004FF00008C4F84080212056
:108D400084F83D00FFF7F8FBA6848146E684A0681E
:108D5000B0F5805F03D004E00120BDE8F88320690E
:108D600028B12E465FF0000584F83C800EE0002616
:108D7000FAE78021204600F055F9A0B9AEB116F807
:108D8000010B21684860E08C401EE084E08C4B467B
:108D90004FF0000200970028EBD14FF04001204631
:108DA00000F040F930B10320D7E735F8020BC0F3EB
:108DB0000800E6E7202084F83D000020CDE70220EF
:108DC000CBE7FEE730B587B014216846FFF750FACD
:108DD00022480024016841F004010160016801F0AB
:108DE00004010591016841F080010160016801F012
:108DF00080010591016841F001010160016801F005
:108E000001010591016841F0020101600068144D03
:108E100000F002000590002220212846FFF786FB83
:108E20004FF4005000900F48CDE9010469460E4808
:108E3000FFF786FA202000900120CDE90104694661
:108E400028460394FFF77CFA002211462820FFF7FA
:108E5000E3FB2820FFF7D2FB07B030BD30380240DB
:108E6000000002400000211000080240FEE7FEE77B
:108E700070477047FFF766BB10B594B03421684661
:108E8000FFF7F6F914210DA8FFF7F2F919480024AD
:108E9000016841F080510160006800F0805012903C
:108EA0001548016821F4404141F4804101600068A7
:108EB000069400F44040129002200090012003909C
:108EC000102004906846FFF7DDFC08B172B6FEE79B
:108ED0000F20CDE90D044FF48050CDE90F40002163
:108EE0000DA81194FFF7CAFB002801D072B6FEE767
:108EF00014B010BD403802400070004004480168C2
:108F000041F47001016002490248803908607047ED
:108F100088ED00E00080000870B504460068016933
:108F2000E26821F44051114301612169A068E269BE
:108F300008436169114308432168CA6849F20C6318
:108F40009A430243CA6020684169A26921F44071D2
:108F50001143416131492068884202D0304988423A
:108F600002D1FFF735FC01E0FFF722FCE2690023A4
:108F7000192164253226B2F5004F626828D0A0FB83
:108F80000101930F9200FFF73BF90146B0FBF5F0AA
:108F90006FF01802504301EB800006EB0010B0FBAD
:108FA000F5F000F0F002B1FBF5F002EB0012B1FBBE
:108FB000F5F06FF01803584301EB800006EB00104A
:108FC000B0FBF5F000F00F0021681044886070BD20
:108FD000A0FB010192185B41FFF712F90146B0FBBB
:108FE000F5F00201B1FBF5F06FF01803584301EB07
:108FF000800006EBC000B0FBF5F000F0F80002EBDB
:109000004002B1FBF5F0584301EB800006EBC000D5
:10901000B0FBF5F000F00700D6E7000000100140BB
:10902000001401402DE9F041984617460E460446CB
:10903000069D1DE0681C1BD02DB1FFF77DFAA0EB4B
:109040000800A84214D92068C16821F4D071C16019
:109050002068416921F001014161202084F83D0030
:1090600084F83E00002084F83C000320BDE8F08135
:109070002068006836EA000004D00020B842D9D049
:109080000020F3E70120F9E7FEE70907090E0028B1
:1090900004DB00F1E02080F80014704700F00F00BE
:1090A00000F1E02080F8141D704702E008C8121F8C
:1090B00008C1002AFAD170477047002001E001C1C1
:1090C000121F002AFBD17047FFF744FAFFF7D4FEC6
:1090D000FFF778FE164815490C2201604FF4E13184
:1090E000416000218160C160C0E904128161C161F9
:1090F000FFF7A8FD08B172B6FEE70E4E4FF0FF3540
:109100002B461E220C490A48FFF702FEFFF714FA0D
:10911000044620213046FFF701FA04F57A7400BFB7
:10912000FFF70AFAA042FBD9EAE70000004400403A
:10913000300000200000024000000020000000007D
:1091400000000000010203040607080900000000F7
:1091500001020304749100080000002030000000A8
:10916000AA900008A49100083000002048040000E4
:10917000BA90000848656C6C6F2066726F6D207540
:10918000736572206170706C69636174696F6E0DD4
:109190000A000000010000001000000000000000B4
:0491A0000024F400B3
:04000005080081C5A9
:00000001FF
