:020000040800F2
:10000000600600204902000851020008530200085F
:1000100055020008570200085902000800000000BD
:100020000000000000000000000000005B0200086B
:100030005D020008000000005F0200086102000885
:1000400063020008630200086302000863020008FC
:1000500063020008630200086302000863020008EC
:1000600063020008630200086302000863020008DC
:1000700063020008630200086302000863020008CC
:1000800063020008630200086302000863020008BC
:1000900063020008630200086302000863020008AC
:1000A000630200086302000863020008630200089C
:1000B000630200086302000863020008630200088C
:1000C000630200086302000863020008630200087C
:1000D000630200086302000863020008630200086C
:1000E000630200086302000863020008630200085C
:1000F000630200086302000863020008630200084C
:10010000630200086302000863020008630200083B
:10011000630200086302000863020008630200082B
:10012000630200086302000863020008630200081B
:1001300063020008000000000000000063020008E5
:1001400063020008630200086302000863020008FB
:1001500063020008630200086302000863020008EB
:1001600063020008630200086302000863020008DB
:100170006302000863020008630200080000000038
:100180000000000063020008000000000000000002
:100190006302000800000000000000006302000885
:1001A00000000000000000000000000063020008E2
:1001B000630200086302000863020008630200088B
:1001C0006302000800F002F800F02EF80AA090E8A0
:1001D000000C82448344AAF10107DA4501D100F002
:1001E00023F8AFF2090EBAE80F0013F0010F18BFA1
:1001F000FB1A43F001031847C8010000D8010000B2
:100200000023002400250026103A28BF78C1FBD81F
:10021000520728BF30C148BF0B6070471FB500F0C0
:10022000C2F81FBD10B510BD00F031F81146FFF740
:10023000F5FF00F0AFF800F04FF803B4FFF7F2FF5E
:1002400003BC00F057F80000094880470948004700
:10025000FEE7FEE7FEE7FEE7FEE7FEE7FEE7FEE776
:10026000FEE7FEE704480549054A064B70470000D3
:1002700079030008C5010008600000206006002026
:10028000600200206002002070477047704775468A
:1002900000F02CF8AE4605006946534620F00700F2
:1002A000854618B020B5FFF7DDFFBDE820404FF0D0
:1002B00000064FF000074FF000084FF0000BAC466F
:1002C000ACE8C009ACE8C009ACE8C009ACE8C009BA
:1002D00021F007018D46704710B50446AFF300804A
:1002E0002046BDE81040FFF7A8BF00000048704757
:1002F0000000002001491820ABBEFEE726000200E6
:10030000704700000F48016841F0010101600E488C
:10031000016821F440610160016841F4806101607D
:10032000416821F020014160816821F440618160D1
:10033000816841F480618160C16821F44061C160DD
:1003400000207047303802400000024010B14FF0EA
:10035000FF30704707484FF40011016000207047DC
:1003600010B14FF0FF30704702482021016000209B
:10037000704700BF180002400548D0F8801041F4D3
:100380007001C0F880104FF000610160704700BF3D
:1003900008ED00E0FFF7B6FF0020FFF7E1FF0020C7
:1003A000FFF7D4FFF6E7F1EE100A4FF6FF71C0F247
:1003B000C03120EA010040F04070E1EE100A7047C1
:1003C000D0030008000000206006000000020008C2
:0400000508000249A4
:00000001FF
