:020000040800F2
:1000000090050020DD0100084F130008B31200081E
:100010004D130008E90200085D150008000000000B
:100020000000000000000000000000005313000862
:10003000EB020008000000005113000855130008EF
:10004000F7010008F7010008F7010008F7010008B0
:10005000F7010008F7010008F7010008F7010008A0
:10006000F7010008F7010008F7010008F701000890
:10007000F7010008F7010008F7010008F701000880
:10008000F7010008F7010008F7010008F701000870
:10009000F7010008F7010008F7010008F701000860
:1000A000F7010008F7010008F7010008F701000850
:1000B000F7010008F7010008F7010008F701000840
:1000C000F7010008F7010008F7010008F701000830
:1000D000F7010008F7010008F7010008F701000820
:1000E000F7010008F7010008F7010008F701000810
:1000F000F7010008F7010008F7010008F701000800
:10010000F7010008F7010008F7010008F7010008EF
:10011000F7010008F7010008F7010008F7010008DF
:10012000F7010008F7010008F7010008F7010008CF
:10013000F70100080000000000000000F7010008BF
:10014000F7010008F7010008F7010008F7010008AF
:10015000F7010008F7010008F7010008F70100089F
:10016000F7010008F7010008F7010008F70100088F
:10017000F7010008F7010008F7010008000000007F
:1001800000000000F701000800000000000000006F
:10019000F70100080000000000000000F70100085F
:1001A000000000000000000000000000F70100084F
:1001B000F7010008F7010008F7010008F70100083F
:1001C000F7010008DFF810D000F07CF80048004785
:1001D0003D1D0008AFF300809005002006488047D1
:1001E00006480047FEE7FEE7FEE7FEE7FEE7FEE71C
:1001F000FEE7FEE7FEE7FEE7DD130008C5010008A5
:100200002DE9F05F0546002092469B46884606464B
:10021000814640241BE0284641464746224600F0DE
:1002200041F853465A46C01A914110D31146184618
:10023000224600F028F82D1A67EB01084F462246A7
:100240000120002100F01FF817EB00094E41201E8D
:10025000A4F10104DFDC484631462A464346BDE8A6
:10026000F09FD2B201E000F8012B491EFBD270478B
:100270000022F6E710B513460A4604461946FFF772
:10028000F0FF204610BD202A04DB203A00FA02F1DC
:10029000002070479140C2F1200320FA03F3194374
:1002A00090407047202A04DB203A21FA02F0002116
:1002B000704721FA02F3D040C2F120029140084376
:1002C00019467047064C074D06E0E06840F0010310
:1002D00094E8070098471034AC42F6D3FFF776FF56
:1002E000401E0008601E0008FEE77047002229B18A
:1002F00001291AD002291BD04FF440720E490B6815
:1003000023F440730B600B6813430B600A6822F000
:10031000F8020A600A68022303EBC00002430A6085
:10032000086840F48030086070474FF48072E5E759
:100330004FF40072E2E70000103C024013480168ED
:1003400089050FD5016821F400710160016841F44D
:1003500000610160016821F400610160016841F4FD
:1003600000710160016849050FD5016821F48061C1
:100370000160016841F480510160016821F48051FD
:100380000160016841F4806101607047003C0240F7
:1003900008490A6822F440720A600A6842F00402BE
:1003A0000A600A684FF4803343EA002002430A607F
:1003B00070470000103C0240064A136823F4407363
:1003C000136013681360136843F001031360017036
:1003D00070470000103C0240094910B50C6824F435
:1003E00040740C600C6844F440740C600C6844F079
:1003F00001040C600260BFF36F8F436010BD00000A
:10040000103C0240074A136823F4407313601368DA
:1004100043F480731360136843F001031360018099
:1004200070470000103C0240074A136823F44073F1
:100430001360136843F400731360136843F00103FF
:100440001360016070470000103C02401C490868BE
:10045000C2061C4805D5C26942F01002C2611022D2
:100460000A600A68920605D5C26942F00802C261B4
:1004700020220A600A68520605D5C26942F00402C9
:10048000C26140220A600A68120605D5C26942F0BC
:100490000202C26180220A600A68D20506D5C269DA
:1004A00042F00102C2614FF480720A600A6892074A
:1004B00005D5C26942F02002C2610220086070477F
:1004C0000C3C02407001002070B511490446002028
:1004D000C86100F039FA06460E4D09E0601C07D0ED
:1004E00024B100F031FA801BA04201D9032070BD75
:1004F0002868C003F2D42868C00701D00120286012
:10050000286810F4F970F2D0FFF7A0FF012070BD49
:10051000700100200C3C024030B5022343710023DF
:1005200005E000BF056851F823402C605B1C934236
:10053000F8D30168096801224271084630BD10B540
:10054000040002D0607910B106E0012010BD002047
:100550002071204600F004F801206071002010BDD9
:1005600008B500680649884208D10648016841F488
:1005700080510160006800F48050009008BD0000C8
:1005800000300240303802402DE9F047044622484E
:100590000F46017E01290AD00121804601764CF2E6
:1005A00050394846FFF790FF020003D02FE00220A9
:1005B000BDE8F0874FF0FF3038602068174D012804
:1005C00001D0A6681CE0207C6168FFF7E1FE484688
:1005D000FFF77AFF0246286820F00400286014E044
:1005E000217C3046FFF782FE4846FFF76DFF020090
:1005F000286820F0FA00286001D03E6005E0761CF3
:10060000D4E902100844B042EAD8FFF797FE00216F
:1006100088F818101046CBE770010020103C02400B
:100620000F2101600D49098881600C4AAA21521EE0
:100630001378CC2B0FD01278AA2A00D05521016153
:100640000649891E0A6802F0E0020276097801F084
:100650000C0141617047CC21F1E70000163C0240DB
:100660000348016841F0004101600020704700002C
:10067000103C02400348016841F001010160002084
:1006800070470000143C024006480068C00707D0CD
:10069000044805490C380160044901600020704796
:1006A00001207047143C02403B2A19087F6E5D4CC4
:1006B0002DE9F0471B4E05461446307E1F468946FD
:1006C000012808D0012030764CF250384046FFF720
:1006D000FBFE18B114E00220BDE8F0879DB1012DAA
:1006E00016D0022D19D022463B464846FFF774FE2D
:1006F0004046FFF7E9FE0C490A6822F001020A6051
:1007000000213176E8E7E1B24846FFF755FEEFE712
:10071000A1B24846FFF776FEEAE721464846FFF7D2
:1007200083FEE5E770010020103C024007490020ED
:100730000A68002A09DA054A054B0C3A1360054B92
:1007400013600968002900DA01207047103C02405C
:1007500023016745AB89EFCD2DE9F84FDFF8ACA158
:10076000002201240AF1040B03254FF00F090BF1BD
:10077000040E00BF0B6804FA02F63340B34272D194
:100780000F7907F00307012F01D0022F16D18768D8
:100790004FEA420805FA08FC27EA0C07D1F80CC01A
:1007A0000CFA08FC4CEA070CC0F808C04768B743CD
:1007B0000E79C6F3001696403E4346600E79F64326
:1007C000B6070AD0C6684FEA420C05FA0CF7BE43DA
:1007D0008F6807FA0CF73743C7600E7906F00306F7
:1007E000022E10D1D60800EB8608D8F820605707F3
:1007F0004FEAD76C09FA0CF7BE430F6907FA0CF7FA
:100800003743C8F8207006684FEA420C05FA0CF727
:10081000BE430F7907F0030707FA0CF73743076069
:100820004E68F6006BD53A4E376847F4804737601C
:10083000366822F0030706F480460096354E07EB33
:10084000060CDCF8086897074FEA177809FA08F7EA
:10085000BE43314FB84201D100271FE02F4FB842AD
:1008600002D101271AE04AE02D4FB84201D10227F8
:1008700014E02C4FB84201D103270FE02A4FB842B1
:1008800001D104270AE0294FB84201D1052705E02C
:10089000274FB84201D1062700E0072707FA08F7DB
:1008A0003743CCF80878DAF800605746D1F804C02E
:1008B0009E435FEACC3C00D51E433E60DBF80060FF
:1008C0005F46D1F804C09E435FEA8C3C00D51E43CE
:1008D0003E60DEF800607746D1F804C09E435FEAD0
:1008E000CC2C00D51E433E60084F0C373E68D1F833
:1008F00004C09E435FEA8C2C00D51E433E60521C10
:10090000102AFFF437AFBDE8F88F0000003C01402B
:100910004438024000300140000002400004024020
:1009200000080240000C0240001002400014024087
:10093000001802400069084000D0012070470AB149
:10094000816170470904FBE7014880687047000037
:1009500010000020024881680278114481607047CD
:10096000100000200B4810B5016841F400710160CF
:10097000016841F480610160016841F480710160A7
:10098000032000F063F8002000F006F800F024F8DF
:10099000002010BD003C024070B50D4D04464FF4E0
:1009A0007A712878B1FBF0F00A490968B1FBF0F0E0
:1009B00000F02EFB48B9102C07D200222146501E11
:1009C00000F024F800206C6070BD012070BD0000B4
:1009D000100000201C0000200B4882B0016841F488
:1009E00080410160006800F4804000900648001FCC
:1009F000016841F080510160006800F08050009073
:100A0000072002B000F022B844380240F0B40E4B88
:100A10001B680C46C3F30223C3F10705042D00D95C
:100A20000425191D072901D2002300E0DB1E012641
:100A300006FA05F1491E214099409E40761E164057
:100A40003143F0BC00F08BBD0CED00E0064900F036
:100A5000070208684FF6FF03184040EA0220034AE5
:100A600010430860704700000CED00E00000FA053C
:100A70002DE9F0470E46050065D0DFF81481D8F85F
:100A80000000F7B200F00F00B04207D288F8007003
:100A9000D8F8000000F00F00B04254D128683D4C57
:100AA000810712D5400703D5206840F4E05020604C
:100AB0002878000703D5206840F460402060206853
:100AC000A96820F0F000084320602878C0072DD0E6
:100AD000304968680839012812D0022813D0032849
:100AE00011D00968890700292DDA216821F0030156
:100AF00001432160FFF728FF814641F2883A0EE06A
:100B000009688903EFE709688901ECE7FFF71CFF33
:100B1000A0EB0901514502D90320BDE8F087206808
:100B2000696800F00C00B0EB810FEFD1D8F800102D
:100B3000404601F00F01B14207D90770006800F08C
:100B40000F00B04201D00120E7E72878400705D523
:100B50002068E96820F4E050084320602878000706
:100B600006D52068296920F4604040EAC100206071
:100B700000F038F82168084AC1F30311515CC840FD
:100B80000649086006480068FFF706FF0020C4E732
:100B9000003C024008380240281E00081C000020CB
:100BA000140000200448054900680968044AC1F39C
:100BB0008221515CC84070471C0000200838024068
:100BC000381E00080448054900680968044AC1F352
:100BD0004231515CC84070471C0000200838024078
:100BE000381E0008224810B5006810F00C02214899
:100BF00015D04110042A11D01D4C241F082A0FD0F3
:100C00000C2A0CD12268236802F03F025B0221D536
:100C10002068C0F38810A0FB010120E0084610BD49
:100C20002268236802F03F025B0205D52068C0F30A
:100C30008810A0FB010104E02168C1F38811A1FB29
:100C400000010023FFF7DCFA2168C1F30141491CD0
:100C500049000AE02168C1F38811A1FB00010023CB
:100C6000FFF7CEFA2168C1F30271B0FBF1F010BDBD
:100C7000083802400024F4002DE9F84F04007DD02C
:100C8000DFF878B32078ABF10407C007A7F10405BB
:100C900050D0DBF800105846C1F3810101290FD074
:100CA0000168C1F38101022902D13968490207D4E0
:100CB0000068C0F38100032809D13868400206D5D6
:100CC0002868800336D560680028D8D032E0606894
:100CD000B0F5803F10D0B0F5A02F286810D020F4D8
:100CE00080302860286820F4802028606068A0B1E7
:100CF000FFF72AFE06460CE0286840F48030F4E74F
:100D000040F480202860F7E7FFF71EFE801B642870
:100D100076D828688003F7D50CE0FFF715FE064665
:100D200005E000BFFFF710FE801B6428F0D828689C
:100D30008003F7D42078DFF8C89280074FF0000ACC
:100D400044D5DBF80010584611F00C0F0FD00168A5
:100D5000C1F38101022902D13968490207D500682F
:100D6000C0F3810003280AD13868400207D42868FC
:100D7000800715D5E068012800D111E03AE1E0686C
:100D8000B0B10120C9F80000FFF7DEFD064604E01F
:100D9000FFF7DAFD801B0228BAD828688007F7D54C
:100DA0002868216920F0F80040EAC10028600DE0C1
:100DB000C9F800A0FFF7C8FD064604E0FFF7C4FD30
:100DC000801B02281CD828688007F7D420780007E9
:100DD00027D5DFF828828B48616908F16C0881B15A
:100DE00001210160FFF7B0FD064604E0FFF7ACFD0E
:100DF000801B022804D8D8F800008007F6D510E040
:100E000089E0C0F800A0FFF79FFD064605E000BF9F
:100E1000FFF79AFD801B02287DD8D8F800008007D4
:100E2000F6D42078400769D574484FF00008383070
:100E30000068C0000BD471483830016841F080511F
:100E4000016000684FF0010800F0805000906E4E85
:100E50003068C00511D4306840F480703060FFF70E
:100E600073FD009006E000BFFFF76EFD0099401A89
:100E7000022850D83068C005F6D5604EA0686836A4
:100E800001280FD00528306810D020F00100306014
:100E9000306820F004003060A068B8B1FFF754FD5E
:100EA00000900FE0306840F00100F4E740F00400EB
:100EB0003060F7E7FFF748FD0099411A41F28830AA
:100EC000814264D830688007F4D50EE0FFF73CFD1E
:100ED000009007E0FFF738FD0099411A41F2883091
:100EE000814254D830688007F4D4B8F1000F05D09F
:100EF00042483830016821F080510160A069A8B3F0
:100F0000DBF80010C1F38101022947D00228C9F89B
:100F100060A005D000E03AE0FFF716FD044639E096
:100F2000FFF712FD064604E0FFF70EFD801B0228C6
:100F30002DD828688001F7D4F4E907010843E16857
:100F4000324A490802EB0141A26841EA8211084392
:100F5000217C40EA0160217D40EA01703860012077
:100F6000C9F86000FFF7F0FC044606E044E000BF6B
:100F7000FFF7EAFC001B022809D828688001F7D592
:100F80003AE000BFFFF7E0FC001B022802D9032073
:100F9000BDE8F88F28688001F4D42DE00128F7D04F
:100FA0003868E26900F48001914223D1226A00F09E
:100FB0003F0191421ED147F6C071626A0140B1EB18
:100FC000821F17D1A26A4FF0FF3300F4403103EBC8
:100FD0005202B1EB024F0DD194F82C2000F0706159
:100FE000B1EB026F06D194F8301000F0E040B0EBA6
:100FF000017F01D00120CBE70020C9E7083802407B
:1010000000004742800E4742007000400000FFFF92
:1010100010B5401EB0F1807F01D3012010BD4FF00C
:10102000E02460610F21601700F099FA0020A061B0
:1010300007202061002010BD70B5040004D094F892
:101040003D00002510B106E0012070BD84F83C5041
:10105000204600F023F8242084F83D002068C16871
:1010600021F40051C160204600F0C0F920680169F8
:1010700021F4904101612068416921F02A01416118
:101080002068C16841F40051C1602564202084F8C3
:101090003D0084F83E00002070BD0000F0B587B030
:1010A000044614216846FFF7E3F821481F4F2668DD
:1010B00000221F491038022303240725BE4215D100
:1010C0000E6846F400360E60096801F4003105919F
:1010D000016841F0010101600068694600F001000B
:1010E00005900C20CDE90003124818E0124FBE42D3
:1010F0001AD10E6846F480260E60096801F480213A
:101100000591016841F0040101600068694600F042
:10111000040005904FF44060CDE90003074802AE9B
:1011200086E83400FFF718FB07B0F0BD004400402C
:1011300040380240000002400048004000080240E1
:101140002DE9F84F044690F83E009A4616460D46A3
:10115000202853D1FDB1F6B194F83C0001284DD0C0
:10116000012084F83C0000272764222084F83E00F8
:101170002763FFF7E9FBA6858146E685A0684FF463
:101180008058404501D1206940B12E465FF00005EE
:1011900084F83C7027E00120BDE8F88F0026F7E7CF
:1011A0004B46002220212046CDF800A000F0A4F9F3
:1011B00008B10320F0E726B1A06840451BD038B144
:1011C00008E020684068C0F3080025F8020B07E03B
:1011D000206980B12068406800F07F0006F8010BAC
:1011E000E08D401EE085E08D0028D9D1202084F8D4
:1011F0003E000020D0E720684068EFE70220CBE700
:101200002DE9F843044690F83D001F4616460D466A
:1012100020284CD1C5B1BEB194F83C00012846D07D
:10122000012084F83C004FF00008C4F840802120E1
:1012300084F83D00FFF788FBA6848146E684A06819
:10124000B0F5805F03D004E00120BDE8F883206999
:1012500028B12E465FF0000584F83C800EE00026A1
:10126000FAE78021204600F047F9A0B9AEB116F8A0
:10127000010B21684860E08C401EE084E08C4B4606
:101280004FF0000200970028EBD14FF040012046BC
:1012900000F032F930B10320D7E735F8020BC0F384
:1012A0000800E6E7202084F83D000020CDE702207A
:1012B000CBE7FEE730B587B014216846FEF7D8FFCC
:1012C0001E480024016841F004010160016801F03A
:1012D00004010591016841F080010160016801F09D
:1012E00080010591016841F001010160016801F090
:1012F00001010591016841F0020101600068104D93
:1013000000F002000590002220212846FFF717FB7D
:101310004FF4005000900B48CDE9010469460A489B
:10132000FFF71AFA202000900120CDE90104694658
:1013300028460394FFF710FA07B030BD303802405A
:10134000000002400000211000080240FEE7FEE716
:1013500070477047FFF7FEBA10B594B03421684665
:10136000FEF786FF14210DA8FEF782FF194800241E
:10137000016841F080510160006800F080501290D7
:101380001548016821F4404141F480410160006842
:10139000069400F440401290022000900120039037
:1013A000102004906846FFF767FC08B172B6FEE7AC
:1013B0000F20CDE90D044FF48050CDE90F400021FE
:1013C0000DA81194FFF754FB002801D072B6FEE778
:1013D00014B010BD4038024000700040024801685F
:1013E00041F470010160704788ED00E070B504467B
:1013F00000680169E26821F44051114301612169EB
:10140000A068E26908436169114308432168CA681A
:1014100049F20C639A430243CA6020684169A26999
:1014200021F440711143416131492068884202D062
:101430003049884202D1FFF7C5FB01E0FFF7B2FB5C
:10144000E2690023192164253226B2F5004F626853
:1014500028D0A0FB0101930F9200FEF7D1FE0146B8
:10146000B0FBF5F06FF01802504301EB800006EB83
:101470000010B0FBF5F000F0F002B1FBF5F002EB6C
:101480000012B1FBF5F06FF01803584301EB800038
:1014900006EB0010B0FBF5F000F00F0021681044DF
:1014A000886070BDA0FB010192185B41FEF7A8FEA9
:1014B0000146B0FBF5F00201B1FBF5F06FF0180347
:1014C000584301EB800006EBC000B0FBF5F000F0E4
:1014D000F80002EB4002B1FBF5F0584301EB80004D
:1014E00006EBC000B0FBF5F000F00700D6E7000007
:1014F00000100140001401402DE9F04198461746C4
:101500000E460446069D1DE0681C1BD02DB1FFF75A
:101510001BFAA0EB0800A84214D92068C16821F486
:10152000D071C1602068416921F001014161202032
:1015300084F83D0084F83E00002084F83C0003203D
:10154000BDE8F0812068006836EA000004D0002081
:10155000B842D9D00020F3E70120F9E7FEE70907F8
:10156000090E002804DB00F1E02080F80014704729
:1015700000F00F0000F1E02080F8141D704702E039
:1015800008C8121F08C1002AFAD17047704700200E
:1015900001E001C1121F002AFBD1704738B5044693
:1015A00000208DF800002178491C6018091F50F8B0
:1015B000042C204600F0FEFA10B100F097FA38BD76
:1015C0002078012100F082FA00210122084600F073
:1015D00011FB8DF80000014603A000F0FBFB012188
:1015E000684600F0DDFA38BD424C5F44454255473D
:1015F0005F4D53473A20666C617368206572617372
:1016000065207374617475733A202523780A0D0080
:1016100038B5044600208DF800002178491C601878
:10162000091F50F8042C204600F0C4FA10B100F055
:101630005DFA38BD2078012100F048FAE178A07801
:10164000002200F0D7FA8DF80000014603A000F058
:10165000C1FB0121684600F0A3FA38BD424C5F444B
:10166000454255475F4D53473A20666C6173682089
:101670006572617365207374617475733A202523F4
:10168000780A0D0038B5044600208DF80000217856
:10169000491C6018091F50F8042C204600F08AFAF3
:1016A00010B100F023FA38BD2078012100F00EFAC5
:1016B000E278A1780EA000F08DFB1B4D01222021C5
:1016C0002846FFF73CF9E178A07800F0E7FA8DF8BA
:1016D0000000002220212846FFF731F99DF8001074
:1016E00012A000F077FB0121684600F059FA38BDDE
:1016F000424C5F44454255475F4D53473A20696E1F
:10170000697469616C5F736563746F723A202564F4
:10171000206E6F5F6F665F736563746F72733A20DC
:1017200025640A0D0000000000000240424C5F44A6
:10173000454255475F4D53473A20666C61736820B8
:101740006572617365207374617475733A20252323
:10175000780A0D0038B504460020ADF80000217865
:10176000491C6018091F50F8042C204600F022FA8A
:1017700010B100F0BBF938BD2078022100F0A6F9C5
:1017800000F0D4FAADF800000246014603A000F0D4
:1017900021FB0221684600F003FA38BD424C5F4449
:1017A000454255475F4D53473A204D4355206964A4
:1017B0003A202364202523782021210A0D000000EF
:1017C00010B501780446491C0844091F50F8042C40
:1017D000204600F0EFF918B1BDE8104000F086B9DE
:1017E0002078082100F072F9BDE810400821014876
:1017F00000F0D6B90000002038B5044600208DF86E
:1018000000002178491C6018091F50F8042C20465C
:1018100000F0D0F910B100F069F938BD207801214D
:1018200000F054F900F07AFA8DF800000246014603
:1018300003A000F0CFFA0121684600F0B1F938BDED
:10184000424C5F44454255475F4D53473A2052440E
:1018500050204C6576656C3A20236420252378203F
:1018600021210A0D0000000038B501780446491C0A
:101870000844091F50F8042C204600F09BF910B1D1
:1018800000F034F938BD2078012100F01FF9102153
:101890008DF800100A4604A000F09CFA0121684669
:1018A00000F07EF938BD0000424C5F444542554788
:1018B0005F4D53473A20424C5F5645523A202564CB
:1018C000202523780A0D00001CB5044600208DF861
:1018D000000001208DF804002178491C6018091FC0
:1018E00050F8042C204600F065F910B100F0FEF825
:1018F0001CBD2078012100F0E9F8D4F802400AA0CC
:10190000214600F067FA204600F072FA4FF001011C
:1019100018B101A800F044F91CBD684600F040F978
:10192000641CA0471CBD0000424C5F444542554723
:101930005F4D53473A20476F2D546F2041646472C6
:101940003A202523782021210A0D0000F8B504460D
:1019500000208DF800002178A679491C6018D4F881
:10196000025050F8042C2046091F00F023F910B152
:1019700000F0BCF8F8BD2078012100F0A7F8294656
:1019800010A000F027FA284600F032FA38B1012002
:101990008DF800000121684600F002F9F8BD134FF0
:1019A000012220213846FEF7CAFF32462946E01DB3
:1019B00000F09AF98DF80000002220213846FEF749
:1019C000BEFFE7E7424C5F44454255475F4D5347F2
:1019D0003A206D656D207772697465206164647268
:1019E0006573733A202523780A0D00000000024039
:1019F00038B501780446491C0844091F50F8042CE6
:101A0000204600F0D7F810B100F070F838BD20780B
:101A1000022100F05BF800F0DEF9ADF800000146AD
:101A200003A000F0D7F90221684600F0B9F838BDEC
:101A3000424C5F44454255475F4D53473A206E57ED
:101A40005250207374617475733A202523780A0DFF
:101A50000000000070B5084D2C6808A0214600F079
:101A6000B9F984F308886C680CA0214600F0B2F93B
:101A7000A446BDE87040604700800008424C5F44C7
:101A8000454255475F4D53473A204D5350207661AC
:101A90006C7565203A202523780A0D00424C5F447E
:101AA000454255475F4D53473A206170702072653B
:101AB0007365742068616E646C6572206164647221
:101AC000203A202523780A0D0000000008B5A52043
:101AD0008DF800008DF801104FF0FF3302226946A7
:101AE0000148FFF78DFB08BD2000002008B57F20CE
:101AF0008DF800004FF0FF33012269460148FFF7DF
:101B00007FFB08BD20000020244C4FF0FF35C8218A
:101B10002248FEF7ADFB21492B460122A1F18800A6
:101B2000FFF70EFB1D4822782B46611C8838FFF713
:101B300007FB607851380C28E9D2DFE800F0070B8A
:101B40000F13171B1F23062B0627E0E71348FFF789
:101B50008BFEDCE71148FFF733FED8E70F48FFF7AD
:101B6000F9FDD4E70D48FFF747FED0E70B48FFF734
:101B7000ABFECCE70948FFF785FDC8E70748FFF74C
:101B8000E5FEC4E70548FFF743FDC0E70348FFF75C
:101B900005FDBCE70148FFF72BFFB8E7A8000020D0
:101BA0008AB201464FF0FF330148FFF729BB00001E
:101BB00020000020F8B50746FF2016460D460024F9
:101BC00007E0385D0090012269460948FEF7A4FC51
:101BD000641CAC42F5D3064909688A6842F00102E8
:101BE0008A60B04201D10020F8BD0120F8BD00009C
:101BF0000800002070B5284D274C0646083DB2B1BC
:101C0000FEF742FD2868C003FCD4206820F00040A5
:101C10002060206840F47F002060206840F00200CF
:101C200020602868C003FCD4FEF724FD03E00129EE
:101C300003D0022916D0002070BDFEF725FD2868CC
:101C4000C003FCD4206820F000402060206820EA17
:101C500006402060206840F0020020602868C00331
:101C6000FCD4E1E7FEF710FD2868C003FCD420682F
:101C700040F000402060206820F47F002060206851
:101C800040EA06402060206840F00200206028689A
:101C9000C003FCD4C8E70000143C024010B586B075
:101CA00008291FD80123FF281AD007281AD8C0F105
:101CB0000802D2B2914200D9114600220092CDE929
:101CC00002010193FEF732FD0220049005A9684647
:101CD000FEF75AFC0446FEF7C3FC204606B010BDD2
:101CE0000093EEE70420F9E72DE9F04116460F4690
:101CF00080460025FEF71AFD002408E0002318F8AE
:101D0000042039191846FEF7D3FC0546641CB4427A
:101D1000F4D3FEF7A5FC2846BDE8F0810248006830
:101D2000C0F307207047000000C0FF1F0248006892
:101D3000C0F30B0070470000002004E070B5FEF710
:101D400011FEFFF709FBFFF7B5FA1D481B494FF4D9
:101D5000E13500240160C0E901540C26C460C0E9EB
:101D600004468461C461FFF767F908B172B6FEE703
:101D70001549144808600846FEF7E1FB08B172B641
:101D8000FEE70F48114944300160C0E90154C460C6
:101D9000C0E904468461C461FFF74EF908B172B628
:101DA000FEE74FF400510A48FEF7C4FD18B1FFF7F3
:101DB00051FE002070BDFFF7A7FE00000044004068
:101DC00020000020003002400800002000480040B1
:101DD00000080240704700B587B0FEF755FC684622
:101DE000FEF71EFCFEF746FC029807B080B200BD6D
:101DF000A0F10051B1F5E03F0ED909490144B1F518
:101E0000804F09D9A0F10061B1F5002F04D3054935
:101E10000844B0F5805F01D800207047012070476A
:101E20000040FEDF00C0FDBF000000000000000019
:101E30000102030406070809000000000102030470
:101E4000601E000800000020200000007E15000831
:101E5000801E000820000020700500008E1500087C
:101E6000515253545556575A0000000000000000CC
:101E70000100000010000000000000000024F40039
:04000005080001C529
:00000001FF
